{
  "_format": "hh-sol-artifact-1",
  "contractName": "Aggregator",
  "sourceName": "contracts/Aggregator.sol",
  "abi": [
    {
      "inputs": [],
      "stateMutability": "nonpayable",
      "type": "constructor"
    },
    {
      "inputs": [
        {
          "internalType": "address[]",
          "name": "path",
          "type": "address[]"
        },
        {
          "internalType": "uint256",
          "name": "inputAmount",
          "type": "uint256"
        }
      ],
      "name": "getPrices",
      "outputs": [
        {
          "internalType": "uint256[2]",
          "name": "prices",
          "type": "uint256[2]"
        }
      ],
      "stateMutability": "view",
      "type": "function"
    },
    {
      "inputs": [
        {
          "internalType": "address[]",
          "name": "path",
          "type": "address[]"
        },
        {
          "internalType": "uint256",
          "name": "inputAmount",
          "type": "uint256"
        }
      ],
      "name": "getSushiPrice",
      "outputs": [
        {
          "internalType": "uint256",
          "name": "",
          "type": "uint256"
        }
      ],
      "stateMutability": "view",
      "type": "function"
    },
    {
      "inputs": [
        {
          "internalType": "address[]",
          "name": "path",
          "type": "address[]"
        },
        {
          "internalType": "uint256",
          "name": "inputAmount",
          "type": "uint256"
        }
      ],
      "name": "getUniswapPrice",
      "outputs": [
        {
          "internalType": "uint256",
          "name": "",
          "type": "uint256"
        }
      ],
      "stateMutability": "view",
      "type": "function"
    }
  ],
  "bytecode": "0x608060405234801561001057600080fd5b50737a250d5630b4cf539739df2c5dacb4c659f2488d6000806101000a81548173ffffffffffffffffffffffffffffffffffffffff021916908373ffffffffffffffffffffffffffffffffffffffff16021790555073d9e1ce17f2641f24ae83637ab66a2cca9c378b9f600160006101000a81548173ffffffffffffffffffffffffffffffffffffffff021916908373ffffffffffffffffffffffffffffffffffffffff1602179055506106e8806100c96000396000f3fe608060405234801561001057600080fd5b50600436106100415760003560e01c8063441a19311461004657806378646c4c1461011c578063e2fc0312146101f2575b600080fd5b6101066004803603604081101561005c57600080fd5b810190808035906020019064010000000081111561007957600080fd5b82018360208201111561008b57600080fd5b803590602001918460208302840111640100000000831117156100ad57600080fd5b919080806020026020016040519081016040528093929190818152602001838360200280828437600081840152601f19601f820116905080830192505050505050509192919290803590602001909291905050506102f0565b6040518082815260200191505060405180910390f35b6101dc6004803603604081101561013257600080fd5b810190808035906020019064010000000081111561014f57600080fd5b82018360208201111561016157600080fd5b8035906020019184602083028401116401000000008311171561018357600080fd5b919080806020026020016040519081016040528093929190818152602001838360200280828437600081840152601f19601f8201169050808301925050505050505091929192908035906020019092919050505061049f565b6040518082815260200191505060405180910390f35b6102b26004803603604081101561020857600080fd5b810190808035906020019064010000000081111561022557600080fd5b82018360208201111561023757600080fd5b8035906020019184602083028401116401000000008311171561025957600080fd5b919080806020026020016040519081016040528093929190818152602001838360200280828437600081840152601f19601f8201169050808301925050505050505091929192908035906020019092919050505061064d565b6040518082600260200280838360005b838110156102dd5780820151818401526020810190506102c2565b5050505090500191505060405180910390f35b6000600160009054906101000a900473ffffffffffffffffffffffffffffffffffffffff1673ffffffffffffffffffffffffffffffffffffffff1663d06ca61f83856040518363ffffffff1660e01b81526004018083815260200180602001828103825283818151815260200191508051906020019060200280838360005b8381101561038a57808201518184015260208101905061036f565b50505050905001935050505060006040518083038186803b1580156103ae57600080fd5b505afa1580156103c2573d6000803e3d6000fd5b505050506040513d6000823e3d601f19601f8201168201806040525060208110156103ec57600080fd5b810190808051604051939291908464010000000082111561040c57600080fd5b8382019150602082018581111561042257600080fd5b825186602082028301116401000000008211171561043f57600080fd5b8083526020830192505050908051906020019060200280838360005b8381101561047657808201518184015260208101905061045b565b5050505090500160405250505060008151811061048f57fe5b6020026020010151905092915050565b60008060009054906101000a900473ffffffffffffffffffffffffffffffffffffffff1673ffffffffffffffffffffffffffffffffffffffff1663d06ca61f83856040518363ffffffff1660e01b81526004018083815260200180602001828103825283818151815260200191508051906020019060200280838360005b8381101561053857808201518184015260208101905061051d565b50505050905001935050505060006040518083038186803b15801561055c57600080fd5b505afa158015610570573d6000803e3d6000fd5b505050506040513d6000823e3d601f19601f82011682018060405250602081101561059a57600080fd5b81019080805160405193929190846401000000008211156105ba57600080fd5b838201915060208201858111156105d057600080fd5b82518660208202830111640100000000821117156105ed57600080fd5b8083526020830192505050908051906020019060200280838360005b83811015610624578082015181840152602081019050610609565b5050505090500160405250505060008151811061063d57fe5b6020026020010151905092915050565b610655610690565b6000610661848461049f565b9050600061066f85856102f0565b90506040518060400160405280838152602001828152509250505092915050565b604051806040016040528060029060208202803683378082019150509050509056fea264697066735822122046df87d2cdc7a46c786cdc538bbd18fbdcdd403a68657bb05b0f67e8094bf09664736f6c63430007030033",
  "linkReferences": {},
  "deployedLinkReferences": {}
}